:100000002FC049C048C0DCC346C0ABC644C043C0D3
:1000100057C441C040C03FC03EC096C5DDC518C2F0
:1000200034C246C24EC21EC222C22BC225C252C216
:100030000CC3A3C316C38FC311C315C32FC365C39A
:1000400048C301020000040001020408102002025B
:100050000202020200000000380000000000370029
:1000600011241FBECFE5D2E0DEBFCDBF10E0A0E679
:10007000B0E0E2E1F3E102C005900D92AE37B107C6
:10008000D9F720E0AEE7B0E001C01D92A33FB20770
:10009000E1F7CFD73CC9B4CFEF92FF920F931F93F4
:1000A000CF93DF931F92CDB7DEB77C01FC010081B7
:1000B0001181C801698315D96981681711F0C801D8
:1000C00018D9C7010F90DF91CF911F910F91FF9029
:1000D000EF90089585E58093BA0081E080938500D4
:1000E00008954F925F926F927F928F929F92AF92FC
:1000F000BF92CF92DF92EF92FF920F931F93CF9315
:10010000DF93FC01EC01C60FD71F6FEF7FEFCB0130
:10011000B1E0EC17FD07B1F1819048E050E010E844
:10012000C12ED12CE12CF12C912CA12CB12C2B0126
:100130003C01442477FC4394552466247724A42D61
:1001400097018601082119212A213B21012B022B2D
:10015000032B11F0AB2FA425660F771F881F991F63
:10016000AA2341F027EB62272DE1722721EC822799
:1001700024E09227F694E794D794C794415051090C
:10018000B1F6C7CFDF91CF911F910F91FF90EF9004
:10019000DF90CF90BF90AF909F908F907F906F90A7
:1001A0005F904F900895EF92FF920F931F93CF931C
:1001B000DF9300D000D000D0CDB7DEB780E6E82EC8
:1001C00080E0F82E04E110E0F70161917F011A83CD
:1001D0000983CE01019660DF0F5F1F4F01321105C9
:1001E00099F76DE070E080E690E07BDF69837A83C9
:1001F0008B839C838E010F5F1F4FE12CF12CF80144
:1002000061918F01FE82ED82CE01059645DFFFEF01
:10021000EF1AFF0A84E0E816F10489F726960FB674
:10022000F894DEBF0FBECDBFDF91CF911F910F912C
:10023000FF90EF900895EF92FF920F931F93CF934B
:10024000DF93CDB7DEB761970FB6F894DEBF0FBE70
:10025000CDBF8DE0E0E7F0E0DE01119601900D9258
:100260008A95E1F7CE0101967C0104E110E0C80116
:1002700038D8F70181937F010F5F1F4F01321105BD
:10028000B1F77E01FEE0EF0EF11C00E010E0C801C6
:1002900028D8F70181937F010F5F1F4F04301105AC
:1002A000B1F76DE070E0CE0101961BDF0E851F8572
:1002B00028893989601771078207930759F48DE0FF
:1002C000FE013196A0E6B0E001900D928A95E1F72B
:1002D00081E001C080E061960FB6F894DEBF0FBEEA
:1002E000CDBFDF91CF911F910F91FF90EF900895B7
:1002F000609160008CEB90E06ED36BE172E08CEB70
:1003000090E0C0D36BEE72E08CEB90E0B6C3A895A2
:1003100080916D00882329F080916D008150809339
:100320006D0080916000853121F48FEE8093BA00DA
:1003300010C080916D00811104C0809185008823D8
:1003400069F080916D00882321F0809185008130D3
:10035000C1F06AEF70E080E090E074C58091BA006F
:1003600080938400B7DE8CEB90E037D3C1DF8091BF
:100370008700909188000196909388008093870071
:10038000E0CF1092BA00809184008093BA0010925E
:100390008500DFCFCF93DF9300D0CDB7DEB71A82D1
:1003A000198260E0CE01019677DE81E090E09A83C9
:1003B000898360E0CE0101966FDE0F900F90DF9190
:1003C000CF91089580919600811107C064E670E096
:1003D00080E090E037D5A895F5CF0895CF93C82F4A
:1003E000692F8CEB90E0FAD26C2F8CEB90E0CF91E0
:1003F000F5C2682F8CEB90E0F1C2CF93DF93262FEC
:10040000C0E8D0E0462F572FBC01488359836A8348
:100410007B83622F8CEB90E0E1D269818CEB90E0E2
:10042000DDD26A818CEB90E0D9D26B818CEB90E0CD
:10043000DF91CF91D3C2E09194008E2F90E0FC0128
:100440003A97E930F10508F04EC0E15FFF4F09949B
:1004500080918A00811110C0809192009091930048
:10046000BDDF41C080918E0090918F00F9CF8091C7
:10047000870090918800F4CF809190009091910036
:10048000EFCF80918A00B5DF2EC060919800709107
:10049000990080E090E008D62091650030916600D8
:1004A000409167005091680089D6D2D5CB01D8CF52
:1004B000609161007091620080916300909164008E
:1004C00011C0609165007091660080916700909105
:1004D000680008C06091690070916A0080916B00AB
:1004E00090916C008ADF1092940086E980936D00F1
:1004F0000895CF93DF938CEB90E0A4D2C0E8D0E0D6
:1005000088838CEB90E09ED289838CEB90E09AD22A
:100510008A838CEB90E096D28B83688179818A8183
:100520009B81DF91CF91089510928D0010928C00E5
:1005300010928B0010928A001092BA000895CF9307
:10054000DF938CEB90E07ED2CEE7D0E088838CEB1B
:1005500090E078D2898380917E0090917F00DF9136
:10056000CF91089520E030E080E090E0DC01F901D7
:10057000EE0FFF1FE656FF4F40815181840F951FFC
:10058000A11DB11D2F5F3F4F2031310581F724E0C0
:10059000B695A795979587952A95D1F7BC0180E0E8
:1005A00090E082D52091610030916200409163001B
:1005B0005091640003D647D5072E000C880B990B89
:1005C00075D50895B99AC19A089510BE89B7806407
:1005D00089BFF8DFFFCFCF92DF92EF92FF921F9398
:1005E000CF93DF93181619060CF0DFC0209194000A
:1005F000222351F020918700309188002F5F3F4FD8
:100600003093880020938700EC0111E0109386005E
:100610008CEB90E017D2809394008091940086FF39
:10062000AFC0CE010197209194002F7B20939400BE
:10063000E09194004E2F50E0FA013197E930F10536
:1006400008F09BC0E85EFF4F0994019709F095C040
:100650008CEB90E0F7D18093BA008FC01092BA0073
:100660008CC098DE88C0049709F087C042DF6B0118
:100670007C012091610030916200409163005091B3
:100680006400DDD4882309F478C0C0926100D09260
:100690006200E0926300F092640035C0049709F0B4
:1006A0006CC027DF6B017C012091650030916600F2
:1006B0004091670050916800C2D4882309F45DC05E
:1006C000C0926500D0926600E0926700F0926800E8
:1006D0001AC0049709F051C00CDF6B017C01209116
:1006E000690030916A0040916B0050916C00A7D472
:1006F000882309F442C0C0926900D0926A00E09257
:100700006B00F0926C004FDD38C00297B1F517DF37
:100710009C01285B3B40213B344070F520919200C6
:10072000309193008217930738F590938D00809352
:100730008C0080919200909193009093910080930F
:10074000900080EF80938B008CE68093BA0081E06C
:1007500080938A0012C0019781F48CEB90E072D1F3
:1007600090916000891749F098EE980F993128F41C
:100770008093600018DD29DFD7DE109294000CC052
:10078000809194008A3041F4EDDE62D4709393003E
:1007900060939200109389008CEB90E046D1892BF6
:1007A00021F08CEB90E04ED1F7CFDF91CF911F91EC
:1007B000FF90EF90DF90CF900895B99AC198089577
:1007C0001F920F920FB60F9211242F933F934F93C6
:1007D0005F936F937F938F939F93AF93BF93EF93A9
:1007E000FF938091BA00811107C080918900811127
:1007F000E9DE1092890012C08091BA009091BA008F
:10080000991F9927991F880F892B8093BA0080918F
:10081000BA0080FF02C0D6DE01C0CFDF80918A001F
:10082000882381F180918B00811116C080919700FF
:10083000811112C097DE0CD47093910060939000E8
:1008400020918C0030918D008091900090919100CA
:100850002817390788F168DE80918B008823A9F07A
:1008600080918B00815080938B0061E084E096D36F
:1008700080918B00811109C060E084E08FD31092D9
:10088000970003C060E084E089D38091BA008111B1
:1008900001C093DF369AFF91EF91BF91AF919F9185
:1008A0008F917F916F915F914F913F912F910F9019
:1008B0000FBE0F901F90189580EF80938B00CCCFC8
:1008C0001F920F920FB60F9211242F938F939F9325
:1008D000EF93FF9384B195B12091BB00222319F0CF
:1008E0001092BB0035C020919500203141F4109248
:1008F0009500909399008093980083E925C0909388
:100900008F0080938E00E0919700F0E0EE0FFF1FC4
:10091000E656FF4F91838083809197008F5F80938D
:10092000970080919700803129F41092970081E020
:1009300080939600809195008F5F809395008091C1
:100940009500803129F480E987B981E08093BB006C
:10095000FF91EF919F918F912F910F900FBE0F906C
:100960001F90189583E987B98EE886B9089584B7F2
:10097000877F84BF0FB6F894A89581B5886181BD43
:1009800011BC0FBE61E084E0BAD260E084E006D31F
:1009900019DE64EF71E080E090E054D20EDF4BDCB2
:1009A000F8941092970080B7806880BF80B78F60FE
:1009B00080BF80E48DBD89B7806489BFD3DF81B5F6
:1009C000886181BD88E681BD78941092BA00FADC16
:1009D0001092BA008DCC862F63C080C0CF938091D7
:1009E000BD008823C1F08091BE00803218F080E005
:1009F00090E019C08091BF00E0916E00F0916F000F
:100A0000E80FF11D60838091BF008F5F8093BF006E
:100A10008093BE0006C0C62F8FD0882341F38C2F51
:100A200063D081E090E0CF9108958091BE0088234B
:100A300031F090E02091BF00821B9109089575D09C
:100A400090E00895F2DF892BA9F08091BE00882301
:100A500071F02091BF00E0916E00F0916F00E20F05
:100A6000F11D808190E02F5F2093BF0008954CD04E
:100A700090E008958FEF9FEF08957093C100609309
:100A8000C00008957093C3006093C200089510924F
:100A9000C6001092C7001092C4001092C5000895BD
:100AA000CF93DF931F92CDB7DEB78983F0DF8981C3
:100AB0008093C9001092C3001092C2001092C1002E
:100AC0001092C000C29AC09ABA9AB89888EA8DB9B2
:100AD00080EF8EB90F90DF91CF910895BA98B898B2
:100AE0001DB880EF8EB908959091C5009F5F9F70EB
:100AF0002091C4009217E1F3E92FF0E0ED51FF4F90
:100B000080839093C50008958091C6009091C7009E
:100B10009817E1F3E091C600EF5FEF70E093C60035
:100B2000F0E0ED52FF4F808108959091C6008091D2
:100B3000C700891B8F7008959091C5008091C400F3
:100B40009F5F891B8F7008951F920F920FB60F92AF
:100B500011240F931F932F933F934F935F936F93A2
:100B60007F938F939F93AF93BF93CF93EF93FF9315
:100B70000091C0001091C1000115110561F0C091F4
:100B8000C7008091C6008C1731F0CFDF90E0F801EC
:100B90000995C093C6001092C800B898B29B04C0D3
:100BA000B09BFCCF88EA01C088EF8DB980EF8EB989
:100BB000FF91EF91CF91BF91AF919F918F917F91D5
:100BC0006F915F914F913F912F911F910F910F90D6
:100BD0000FBE0F901F9018951F920F920FB60F9295
:100BE00011240F931F932F933F934F935F936F9312
:100BF0007F938F939F93AF93BF93CF93EF93FF9385
:100C00008091C800823009F44CC028F4882359F040
:100C1000813051F183C0843009F449C010F185302E
:100C200009F464C07BC08FB1882331F08FB1869501
:100C30009091C900891330C0789B0DC0E091C2002B
:100C4000F091C300309729F08091C5008093C400D3
:100C5000099581E001C084E08093C8001FB8B89A6C
:100C60005BC08FB1811118C08091C4009091C50004
:100C7000981791F08091C4008F5F8F708093C400AB
:100C8000E091C400F0E0ED51FF4F80818FB982E028
:100C90008093C800B89A03C0B89888EA8DB980E7F5
:100CA0003CC083E08093C800B8981FB835C085E089
:100CB0008093C800B89880E78EB90091C000109169
:100CC000C1000115110551F1C091C7008091C60006
:100CD0008C1721F18EB18E7AE9F3759B1FC025DF49
:100CE00090E0F8010995C093C60018C084E0809395
:100CF000C8009FB18091C7008F5F8F702091C600A0
:100D0000281749F08093C700E091C700F0E0ED524A
:100D1000FF4F9083A3CFB8988EE78EB9FF91EF91E4
:100D2000CF91BF91AF919F918F917F916F915F9183
:100D30004F913F912F911F910F910F900FBE0F90E8
:100D40001F90189580B7807F80BF80B7806880BF74
:100D50008CB580648CBD8FEF8DBD80B7876080BF00
:100D600008951F920F920FB60F9211242F933F9365
:100D70008F939F93AF93BF938091CB009091CC00C2
:100D8000A091CD00B091CE003091CA0026E0230F93
:100D90002D3730F029E8230F0396A11DB11D03C0A4
:100DA0000296A11DB11D2093CA008093CB009093A1
:100DB000CC00A093CD00B093CE008091CF00909155
:100DC000D000A091D100B091D2000196A11DB11D1B
:100DD0008093CF009093D000A093D100B093D20025
:100DE000BF91AF919F918F913F912F910F900FBE27
:100DF0000F901F9018953FB7F8948091CF00909175
:100E0000D000A091D100B091D20022B708B601FE67
:100E100005C02F3F19F00196A11DB11D3FBFBA2F8C
:100E2000A92F982F8827820F911DA11DB11DBC01EC
:100E3000CD0143E0660F771F881F991F4A95D1F7B0
:100E400008950895CF92DF92EF92FF92CF93DF93B0
:100E50006B017C01D0DFEB01C114D104E104F1048A
:100E600079F0EFDFC8DF6C1B7D0B683E7340A0F3A9
:100E700081E0C81AD108E108F108C851DC4FF2CF6F
:100E8000DF91CF91FF90EF90DF90CF9008958AB5DA
:100E900082608ABD8AB581608ABD83B7887F83609E
:100EA00083BF789489B7826089BF4CDF86B1887729
:100EB000866886B9379A0895813031F48AB58F777C
:100EC0008ABD8AB58F7B07C0823039F48AB58F7DA1
:100ED0008ABD8AB58F7E8ABD0895833039F480B784
:100EE0008F7D80BF80B78F7E80BF0895843031F4BE
:100EF0008CB58F7D8CBD8CB58F7E8CBD0895CF93C6
:100F0000DF9387FF11C08F7741F0813041F082304D
:100F100041F0833041F08FEF07C085E005C082E0EB
:100F200003C084E001C083E090E0FC01E85BFF4F78
:100F30002491FC01E25BFF4F8491882361F190E0F2
:100F4000880F991FFC01E65AFF4FC591D491FC010F
:100F5000EC5AFF4FA591B491611109C09FB7F89465
:100F60008881209582238883EC912E230BC06230E8
:100F700061F49FB7F8943881822F8095832388830A
:100F8000EC912E2B2C939FBF06C08FB7F894E8816D
:100F90002E2B28838FBFDF91CF9108950F931F933E
:100FA000CF93DF931F92CDB7DEB787FF11C08F7746
:100FB00041F0813041F0823041F0833041F08FEFD9
:100FC00007C085E005C082E003C084E001C083E083
:100FD000282F30E0F901EE5BFF4F8491F901E85BC7
:100FE000FF4F1491F901E25BFF4F04910023D9F008
:100FF000882319F0698360DF6981E02FF0E0EE0F4C
:10100000FF1FEC5AFF4FA591B4918FB7611106C035
:10101000F8949C91E12FE095E92303C0F894EC91BA
:10102000E12BEC938FBF0F90DF91CF911F910F9128
:10103000089581B781BF2BDF9ADC69D9FECF71D0CB
:1010400008F481E0089504D06894B111B1C0089506
:1010500094D088F09F5790F0B92F9927B751A0F0FE
:10106000D1F0660F771F881F991F1AF0BA95C9F73C
:1010700012C0B13081F09BD0B1E0089598C0672FC5
:10108000782F8827B85F39F0B93FCCF386957795EC
:101090006795B395D9F73EF49095809570956195D5
:1010A0007F4F8F4F9F4F0895E89409C097FB3EF400
:1010B00090958095709561957F4F8F4F9F4F9923A5
:1010C000A9F0F92F96E9BB279395F6958795779523
:1010D0006795B795F111F8CFFAF4BB0F11F460FFE3
:1010E0001BC06F5F7F4F8F4F9F4F16C0882311F03B
:1010F00096E911C0772321F09EE8872F762F05C04F
:10110000662371F096E8862F70E060E02AF09A95E9
:10111000660F771F881FDAF7880F9695879597F9DE
:101120000895990F0008550FAA0BE0E8FEEF161678
:101130001706E807F907C0F012161306E407F507CB
:1011400098F0621B730B840B950B39F40A2661F03F
:10115000232B242B252B21F408950A2609F4A140E2
:10116000A6958FEF811D811D089557FD9058440F5E
:10117000551F59F05F3F71F04795880F97FB991FF6
:1011800061F09F3F79F087950895121613061406B3
:10119000551FF2CF4695F1DF08C016161706180640
:1011A000991FF1CF86957105610508940895E8941B
:1011B000BB2766277727CB0197F908950AD080C00F
:1011C00071D028F076D018F0952309F062C067C07E
:1011D000EFCFCBDFA8F39923D9F35523C9F3950FAC
:1011E00050E0551FAA27EE27FF27BB2700240894AD
:1011F000679520F4E20FF31FB41F0A1E220F331F5E
:10120000441FAA1F6695A9F7779530F4F30FB41F12
:101210000A1E121E08F46395330F441FAA1F221FD3
:10122000769599F7879520F4B40F0A1E121E631F56
:10123000440FAA1F221F331F8695A9F7862F712DF1
:10124000602D11249F5750408AF0E1F088234AF026
:10125000EE0FFF1FBB1F661F771F881F9150504066
:10126000A9F79E3F510570F014C0A2CF5F3FECF389
:10127000983EDCF3869577956795B795F795E79552
:101280009F5FC1F7FE2B880F911D9695879597F963
:10129000089597F99F6780E870E060E008959FEFF8
:1012A00080EC089500240A941616170618060906FD
:1012B000089500240A9412161306140605060895CC
:1012C000092E0394000C11F4882352F0BB0F40F454
:1012D000BF2B11F460FF04C06F5F7F4F8F4F9F4F94
:1012E0000895E199FECF9FBB8EBBE09A99278DB3FD
:1012F0000895262FE199FECF1CBA9FBB8EBB2DBB54
:101300000FB6F894E29AE19A0FBE01960895F89408
:02131000FFCF0D
:10131200158FC28D40713D8A3F00002041FFD300EE
:0E132200158FC28D40713D8A3F0000204100B2
:00000001FF
